:1000000012C099C3189518951895189518951895B4
:100010001895189518951895189518951895189578
:100020001895189518958FE58DBFC8E3E0E24E2E20
:1000300084E08EBFD4E0F4E05F2EA89584B7082E4C
:10004000877F84BF88E1992781BD91BDEEEFF3E002
:10005000A0E6B0E088278D933197E9F766248FEF0B
:1000600087BBA29AA39AA19AA09A899A8B988898FA
:10007000909A80E08093660085B7836085BF7BB7E8
:1000800070647BBF7894FED310ED13D410E011D4CC
:10009000F9D311ED0ED42AD4AAE6B0E01C9300D413
:1000A000AAE6B0E08C918F778C93ECD310ED01D45D
:1000B00010E0FFD310916A00FCD3F2D3E3D310ED2C
:1000C000F8D317E0F6D310E1F4D3EAD3E1E0F0E09F
:1000D0008CD3D8D310EDEDD310E0EBD3D3D311ED07
:1000E000E8D306D4AAE6B0E01C9302D4ABE6B0E0B5
:1000F0001C93FCD3ACE6B0E01C93D2D390916A0081
:100100007AD3AAE6B0E08C9390916B0074D3ABE6FF
:10011000B0E08C9390916C006ED3ACE6B0E08C9321
:1001200040916C0000917400041781E009F080E0B8
:100130008F9340916B0000917300041781E009F0E8
:1001400080E09F9189238F9300916A000E3181E0B6
:1001500010F009F080E09F9189238F930091660051
:10016000023081E008F080E09F918923882309F420
:1001700013C000916C00003081E009F480E08F939F
:1001800000916B00003081E009F480E09F918923A9
:10019000882309F401C055D279D2809929C081E021
:1001A00090E039D3A1E7B0E019D3A1E7B0E00D9119
:1001B0001C91083755E0150708F40DC042D280E0C5
:1001C00090E0A1E7B0E08D939C93809BFECF80E010
:1001D0008093660045C1809BE2CF80916C00809344
:1001E000660080E090E0A1E7B0E08D939C9301C0B1
:1001F00070CF80E090E0A8E6B0E08D939C93A8E6F5
:10020000B0E00D911C91043F51E0150710F009F08A
:1002100040C000916C004AE020D3A5E6B0E08C938A
:10022000E8E3F6E0A5E6B0E08C919927A8E3B0E01A
:1002300011D3A99A81E090E0EED2A99800916C00C8
:100240004AE00BD3A4E6B0E00C93E8E3F6E0A4E6C2
:10025000B0E08C919927A8E3B0E0FCD2A89A81E0A5
:1002600090E0D9D2A8988091660080936C000091AC
:100270006C00073110F009F001C006C080E08093E7
:100280006C0080E080936600A8E6B0E0A7D208F496
:10029000B6CF8091660080936C0000916C000731AE
:1002A00010F009F001C006C080E080936C0080E08F
:1002B00080936600809935C0919A84E690E0ABD235
:1002C00081E090E0A8D2809BF7CF00916C004AE0DB
:1002D000C4D2AFE6B0E00C9300916C004AE0BDD20E
:1002E000A0E7B0E08C9300916F0040E1049FACE682
:1002F000B0E00C9200916C0040917000040FACE6ED
:10030000B0E00C93BFD210EDD4D212E0D2D2109153
:100310006C00CFD2C5D280916B008093660091981B
:1003200004C082E390E077D264CF80E090E0A8E65A
:10033000B0E08D939C93A8E6B0E00D911C91043F32
:1003400051E0150710F009F040C000916B004AE041
:1003500084D2A5E6B0E08C93E8E3F6E0A5E6B0E051
:100360008C919927A8E3B0E075D2AB9A81E090E038
:1003700052D2AB9800916B004AE06FD2A4E6B0E095
:100380000C93E8E3F6E0A4E6B0E08C919927A8E3AB
:10039000B0E060D2AA9A81E090E03DD2AA98809124
:1003A000660080936B0000916B000B3310F009F036
:1003B00001C006C080E080936B0080E080936600FF
:1003C000A8E6B0E00BD208F4B6CF80916600809327
:1003D0006B0000916B000B3310F009F001C006C0F8
:1003E00080E080936B0080E080936600809934C049
:1003F000919A84E690E00FD281E090E00CD2809B4D
:10040000F7CF00916B004AE028D2ADE6B0E00C9344
:1004100000916B004AE021D2AEE6B0E08C930091EF
:100420006D0040E1049FABE6B0E00C9200916B00E0
:1004300040916E00040FABE6B0E00C9323D210EDB8
:1004400038D211E036D210916B0033D229D280E03D
:100450008093660091983DCE82E390E0DCD165CF39
:1004600080E090E0A8E6B0E08D939C93A8E6B0E031
:100470000D911C91043F51E0150710F009F040C0A8
:10048000009174004AE0E9D1A5E6B0E08C93E8E37E
:10049000F6E0A5E6B0E08C919927A8E3B0E0DAD1C8
:1004A000A99A81E090E0B7D1A998009174004AE040
:1004B000D4D1A4E6B0E00C93E8E3F6E0A4E6B0E023
:1004C0008C919927A8E3B0E0C5D1A89A81E090E08B
:1004D000A2D1A89880916600809374000091740066
:1004E000073110F009F001C006C080E0809374006D
:1004F00080E080936600A8E6B0E070D108F4B6CF43
:10050000809166008093740000917400073110F0B0
:1005100009F001C006C080E08093740080E0809301
:10052000660080990FC0919A81E090E074D1809B21
:10053000FBCF8091740080937600919880E0809347
:10054000660004C082E390E066D18ACF80E090E04C
:10055000A8E6B0E08D939C93A8E6B0E00D911C91C5
:10056000043F51E0150710F009F040C000917300FE
:100570004AE073D1A5E6B0E08C93E8E3F6E0A5E6A7
:10058000B0E08C919927A8E3B0E064D1AB9A81E008
:1005900090E041D1AB98009173004AE05ED1A4E6AF
:1005A000B0E00C93E8E3F6E0A4E6B0E08C91992784
:1005B000A8E3B0E04FD1AA9A81E090E02CD1AA98AC
:1005C0008091660080937300009173000B3310F0EC
:1005D00009F001C006C080E08093730080E0809342
:1005E0006600A8E6B0E0FAD008F4B6CF80916600C5
:1005F00080937300009173000B3310F009F001C079
:1006000006C080E08093730080E08093660080994C
:100610000FC0919A81E090E0FED0809BFBCF80914B
:1006200073008093750080E080936600919851CDAF
:1006300082E390E0F0D08ACF3F065B4F666D7D0786
:100640007F6F919A80E08093600000916000043B8E
:1006500010F009F008C01AD0A0E6B0E08C918F5FCE
:100660008C9308F4F2CF919880E080936000009121
:100670006000003510F009F008C008D0A0E6B0E036
:100680008C918F5F8C9308F4F2CF089500916B00EA
:100690004AE0E3D0A5E6B0E08C93E8E3F6E0A5E617
:1006A000B0E08C919927A8E3B0E0D4D0AB9A81E078
:1006B00090E0B1D0AB9800916B004AE0CED0A4E6B8
:1006C000B0E00C93E8E3F6E0A4E6B0E08C91992763
:1006D000A8E3B0E0BFD0AA9A81E090E09CD0AA98AD
:1006E00000916C004AE0B9D0A5E6B0E08C93E8E355
:1006F000F6E0A5E6B0E08C919927A8E3B0E0AAD097
:10070000A99A81E090E087D0A99800916C004AE016
:10071000A4D0A4E6B0E00C93E8E3F6E0A4E6B0E0F1
:100720008C919927A8E3B0E095D0A89A81E090E059
:1007300072D0A89808950F921F922F923F924F92D5
:100740005F927F92AF92BF920F931F932F933F932D
:100750004F935F936F937F938F939F93AF93BF93C9
:10076000CF93DF93EF93FF938FB78F93839906C057
:10077000A6E6B0E08C918F5F8C9305C0A6E6B0E052
:100780008C9181508C9300916600033610F009F033
:1007900001C003C080E080936600919A82E090E0FF
:1007A0003AD091988F918FBFFF91EF91DF91CF91C8
:1007B000BF91AF919F918F917F916F915F914F9179
:1007C0003F912F911F910F91BF90AF907F905F90BD
:1007D0004F903F902F901F900F901895ED91FC91A6
:1007E000EF5FFF4FFC93EE93089588EE93E013D0F4
:1007F0003197D9F70895892F8F70905110F0865F47
:10080000FCCF08953197F1F70895689462F8089540
:10081000E89462F80895EF93FF93EE27E82BE92B15
:1008200031F0E0EDF7E03197F1F70197D1F7FF9163
:10083000EF910895C89531960020089591E005C084
:1008400092E003C094E001C098E0F4DF0D929A9525
:10085000E1F70895E80FF91FF1CFFF93881BF9E046
:10086000001FFA9511F4FF910895881F841B18F456
:10087000840F8894F5CF0894F3CFA498A598AC98EA
:10088000AD980895A59AA49803D0A59801D0A49AEC
:10089000EF93FF93E6E0F0E0B5DFFF91EF9108956D
:1008A000A59AA49AF5DFA5989D9BFECFF1DFA498A9
:1008B000EFCF0894111F01C0110F69F0A59A18F429
:1008C0000000A49802C0A49A00C0E2DFA5989D9BF6
:1008D000FECFDEDFF1CFA59AA498DADFA5989D9B25
:1008E000FECFE8949C99689462F8D2CF089401C036
:1008F0008894331F11E0A59AA498CADFA5989D9B00
:10090000FECFC6DF88949C990894111FA0F7A59A82
:10091000379510F4A49801C0A49ABADFA5989D9BBE
:06092000FECFB6DF0895D2
:00000001FF
