:0600000032C0F8C203C388
:1000060019C315C3FACFF9CFF8CF09C3F6CFF5CF89
:10001600F4CFF3CFF2CFF1CFF0CFEFCFEECFEDCFDE
:100026001027E80364000A00010000100001100018
:1000360001000001000000000000000401010101B0
:10004600010063003C000A00040038000500680156
:10005600420001006D014800010073014A000000E2
:10006600F894EE27ECBBF1E0FBBFEBBFE5BF8DE0FC
:10007600A2E0BB27ED938A95E9F780E094E0A0E63D
:10008600ED930197E9F7ECE4F0E0859195910097FF
:1000960061F0A591B59105901590BF01F00105900D
:1000A6000D920197E1F7FB01F0CFEFE5EDBFE4E03C
:1000B600EEBFC0E6D1E004C6C8D6EE30A0E0FA072F
:1000C60021F4E7E0EA93A0E007C0ED30A0E0FA07EC
:1000D60021F4E7E0EA93A0E152D62DC4BAD62E97D2
:1000E60039D9BAD6BED6BFD6EC85FD85E370F07099
:1000F600E887F987BDD6319760407040B4D6B8D648
:10010600ADE6B1E080E090E083D8ADD6B6D61197E3
:1001160011F440E050E0B1D6129711F44FE150E0EF
:10012600ACD6139711F44BE350E0A7D6149711F40D
:100136004AE550E0A2D6159711F448E750E09DD65F
:10014600169711F447E950E098D6179711F445EB46
:1001560050E093D6189711F444ED50E08ED61997D7
:1001660011F443EF50E089D61A9711F441E151E0BA
:1001760084D61B9711F440E351E07FD61C9711F407
:100186004EE451E0E885F985309711F44F5F5F4FF3
:10019600FA0176D6EA8DFB8D73D65ED68F010150B5
:1001A6001040D801E4E0F0E066D88F0169D660D649
:1001B600E355F6476340704056D6F801EB59F040D8
:1001C6009F01AC85BD858E859F854BD604D8A88BAF
:1001D600B98B8A8B9B8B5BD653D862D664D660D696
:1001E60094D8E351F5405CD65ED651D67CD85ED61F
:1001F600E1E0F0E05ED660D60CF062D65DD60CF09B
:100206005FD65AD60CF05CD657D60CF059D654D6D3
:100216000CF056D651D60CF053D65AD60CF05CD606
:1002260057D60CF059D654D60CF056D651D60CF0FB
:1002360053D64ED60CF050D6EA85FB85AC89BD89DF
:1002460032D6EE81FF81AE89BF892DD629D65DD8FB
:1002560088D8A0960895FDD5A4E0B0E05AD8E0303D
:1002660051F0919AAA81BB81A7D791983DD66ED8B5
:1002760010F43AD6A1D7D0C5AA93E5B3E07FE5BB83
:1002860036D611F4A1E00BC038D611F4A2E007C0AF
:1002960038D611F4A3E003C038D611F4A4E001D097
:1002A6004AC3D3D536D631F4E0916901E03009F07E
:1002B600A89A17C022D631F4E0916A01E03009F01D
:1002C600A99A0FC01ED631F4E0916B01E03009F017
:1002D600AA9A07C01AD629F4E0916C01E03009F019
:1002E600AB9A29C3B2D515D611F4E6E024C305D6D8
:1002F60011F4EBE520C305D611F4EFE41CC305D6D3
:1003060011F4E6E618C3E530A0E0FA0711F4EDE6CD
:1003160012C3E630A0E0FA0711F4EDE70CC3FDD5F1
:1003260011F4E7E008C3FDD511F4EFE704C3FDD5EA
:1003360011F4EFE600C3309711F4EFE3FCC2E536A3
:10034600A0E0FA0711F4E9E7F6C2E237A0E0FA07FF
:1003560011F4E0E7F0C2E236A0E0FA0711F4ECE7A8
:10036600EAC2E037A0E0FA0711F4E3E7E4C2EF36A9
:10037600A0E0FA0711F4ECE5DEC2E636A0E0FA07E3
:1003860011F4E1E7D8C2EC36A0E0FA0711F4E8E38D
:10039600D2C2E336A0E0FA0711F4E8E5CCC2E437AE
:1003A600A0E0FA0711F4E8E7C6C2E837A0E0FA07CA
:1003B60011F4E6E7C0C2E136A0E0FA0711F4E7E778
:1003C600BAC2E936A0E0FA0711F4E0E3B4C2E836AF
:1003D600A0E0FA0711F4E4E7AEC2E637A0E0FA07B8
:1003E60011F4EEE3A8C2EE32A0E0FA0711F4E0E061
:1003F600A2C2E436A0E0FA0711F4EEE59CC2EE369E
:10040600A0E0FA0711F4E4E596C295C2AA93EA8140
:10041600E150EA83E03039F16AD589F48AD531971B
:100426008BD5FF93EF938BD5AF91BF91EC9381D58D
:1004360083D5FF93EF938AD5AF91BF9112C05DD557
:1004460089F477D579D5FF93EF9379D5AF91BF919D
:10045600EC936FD5EF59FE4FFF93EF9377D5AF919E
:10046600BF91EC930AC065D5319766D5FF93EF939C
:10047600A98138DFAF91BF91EC93B3C4E52DF0E0CD
:1004860048D529F4E091600168D5E2E014C035D57D
:1004960029F4E091610161D5E3E00DC032D529F47C
:1004A600E09162015AD5E4E006C02FD529F4E09127
:1004B600630153D5E1E05E2EAAE7B1E0ED91FD912F
:1004C6003196FE93EE930895CC240895E1E0CE2E66
:1004D6000895882499240895E0E0E0937A01E09352
:1004E6007B01089580990BC0809BFECF39D5EEDF46
:1004F600F3DFAA2021F43BD5E3E0AE2EE5DFEA2DBB
:10050600F0E0FFD449F435D5A130EDE7BE071CF085
:10051600E3DFAA2425D516C03097A1F42AD5A13445
:10052600EFE1BE072CF0E2E0AE2EA5E037D0D4DF37
:10053600A82DE2E023D5A92DE2E05BD6E02911F053
:10054600E1E0AE2E0895AA931A9310E010E015305C
:10055600C8F4E981F0E0EB30A0E0FA0739F411D5F0
:10056600A33618F411D5EF5F12D50AC0EC30A0E01F
:10057600FA0731F406D5A23018F006D5E15007D5B2
:100586001F5FE5CFFED467D0A5E008D003D505D51B
:1005960008D50AD50ED510D51881F6C3AA93B8800A
:1005A600C4D3E1E0E0936401C6C1E0916401E030A8
:1005B60051F0E0E0EB1510F4BA9405C0BED3AA24BE
:1005C600E0E0E09364010895E2E0E91521F00CC053
:1005D600E2E0E81549F4E3E0F0E0F0D4A0E0B0E0B2
:1005E6003ADE77DFE1E00895E0E008950895E9D482
:1005F600E92DF5D411F4E1E003C08BD411F4E2E067
:100606008E2E6ADF1AC0DDD4E82DE9D411F4E1E0BC
:1006160003C07FD411F4E2E09E2E5EDF0EC0D1D47B
:10062600C4DF35D0EEE9EDBDE8E5ECBD06C0C9D4C2
:1006360025DF03C0C6D4A0E01FDEE991EFBFF99124
:10064600E991B991A9919991899179916991F990D5
:10065600199009901895AA931A9310E0E0E0E3BD6B
:10066600A981EFEFEA9FF001DF01E4E6F0E003D6AF
:10067600E98310E0E9811E1740F4E3B5EF3F18F473
:10068600E3B5EF5FE3BD1F5FF5CF18817DC3E09152
:100696006701E03019F1A0916601A13080F4A2D47F
:1006A60031F4E0E0E0936901E0936A0107C025D4E4
:1006B60029F4E0E0E0936B01E0936C010FC0A09198
:1006C6006601A43040F48ED411F495D403C015D439
:1006D60009F497D403C0E0E0E09366010895AA9375
:1006E600E0916701E03031F028D3E0E0E093670164
:1006F60082D487D4A881A13038F0E881E0936501DF
:1007060014D3E1E0E093670116C1E4E0F0E056D4CB
:10071600E7E0F0E053D4A6E0B0E04DD37720D1F483
:10072600A09173016A16A0F4A42DE6E167D50E2EFA
:10073600E7E069D5E02161F0E4EFF1E03FD4A4EF12
:10074600B1E089DDE4EFF1E039D4A0E0B0E083DD8B
:10075600609273015CD41E2EA1E010D4E12DA2E0BC
:1007660048D5E02999F0A1E0B0E0D3D5AE2FE42D2D
:1007760005D4A0E0B0E0CDD5AE2FE72D4CD431F0B6
:10078600E9E0AE2E44D4E13009F448D403D44BD486
:100796007A9212D4ADE090DC0895E9D3E2E7F1E075
:1007A6000DD4E1E7F1E00AD4E0E7F1E007D4AFE6E3
:1007B600B1E019D33CD4F0E001D43CD4F0E0FED350
:1007C6003CD4F0E0FBD3E4E7F1E0F8D3E6E7F1E070
:1007D600F5D3A8E7B1E082DCDDD3E091760130D431
:1007E600E091780131D408951A9310E0C0D3D2D3A2
:1007F600A1E0B0E08ED524D4A0E0B0E08AD524D420
:1008060010E0193040F4ECE2F1E0D8D3A8ECB0E007
:1008160022DD1F5FF6CFAA2419910895AA24E4E0E9
:10082600DE2E52DEA0E05BDF08950FD3EF30A0E0AE
:10083600FA0751F4B6D3E3E609D4ECE605D4B1D30E
:1008460009D4E3E60CD477C068D351F4AAD3E5E61D
:10085600FDD3E8E7F9D3A5D305D4E4E700D46BC00C
:1008660064D361F49ED3E1E6F1D3ECE6EDD399D3FC
:10087600E1E6FDD39ED3A4E0C9DD5DC052D349F4C1
:1008860090D392D396D398D38CD3ECD3E9E0E7D325
:1008960052C0E031A0E0FA0751F483D3ECD3EFE67F
:1008A600D3D37FD3EEE6E3D3E5E6D9D344C0ED3028
:1008B600A0E0FA0749F475D3DED3EEE2C5D371D3CF
:1008C600C9D3EEE6CCD337C0EE30A0E0FA0751F438
:1008D60068D3D1D3EFE6B8D364D3E6E6C8D3E6E669
:1008E600BED329C0E131A0E0FA0749F45AD3C3D3F5
:1008F600E2E6AAD356D3B6D3E0E7B1D31CC0FDD205
:1009060059F44FD3E4E6A2D3E1E69ED34AD3E4E713
:10091600AED3E5E6A4D30FC0E231A0E0FA0759F45E
:1009260040D3E5E693D3E6E78FD33BD3E5E69FD303
:1009360040D3A4E06BDD219608959FD3A1D3A3D322
:1009460099F0A4D331F01DD3A33618F41DD3EF5F6D
:100956001ED3A0D331F015D3A23018F015D3E15031
:1009660016D318D31AD3EACF0CD375DE0DD3A2E073
:10097600B0E036C1F3D4142D072DA6DD0BD353D327
:100986007A921AD3A1E0ABDE7BD37DD379F07ED306
:1009960019F0183108F41F5F7DD319F0113008F0F3
:1009A6001150F8D21A93A1E031DDEECF66D368D3A9
:1009B6006AD371F06BD319F00B3308F40F5F6AD367
:1009C60019F0013008F00150E5D20A93F5D2EFCFC5
:1009D6001A930A93A0E0FED1DDC076DDE2D2E4E010
:1009E60035D3E5E631D3D6D222D32ED349D34BD352
:1009F600C1F04CD341F0A0916F01A33620F417D378
:100A0600EF5FE0936F0146D341F0A0916F01A130F3
:100A160020F00DD3E150E0936F01BCD208D314D37C
:100A2600E5CF52DDBED2EEE611D3EEE60DD3B2D25D
:100A360001D30AD325D327D3C1F028D341F0A091FF
:100A46007001AB3320F4F6D2EF5FE093700122D34E
:100A560041F0A0917001A13020F0ECD2E150E0937A
:100A6600700198D2E7D2F0D2E5CF2EDD9AD2E4E635
:100A7600EDD2E1E6E9D28ED2E0D2E6D201D303D3BB
:100A8600C1F004D341F0A0917101AB3320F4D5D26B
:100A9600EF5FE0937101FED241F0A0917101A130A8
:100AA60020F0CBD2E150E093710174D2C6D2CCD201
:100AB600E5CFE7E0EA93C1D2EA93BCD2EA93A091EC
:100AC6006F01A2D18EC04AD410E000E0142D072D8C
:100AD600FBDCA4D2D5D2D7D239F199D280D259F43F
:100AE600DCD219F0DFD2E1E020D4D4D219F0DAD288
:100AF600E2E01BD417C00DD251F4A0E1D6D219F012
:100B0600D1D2E2E012D4C6D209F088D20BC0F5D118
:100B160049F4A2E1CAD209F081D2BCD219F0C2D2FC
:100B2600E1E003D4DFDCD6CF72D2E03099F1CCDC41
:100B360031D279D27A9240D2A1E0D1DDA1D2A3D22C
:100B460079F0A4D219F0183108F41F5FA3D219F076
:100B5600113008F011501ED21A93A1E057DCEECFE7
:100B66008CD28ED290D271F091D219F00B3308F458
:100B76000F5F90D219F0013008F001500BD20A93A2
:100B86001BD2EFCFE12FA1E0B0E0CFD3E02FA0E062
:100B9600B0E0CBD343DE09911991089595DC70D26C
:100BA60072D2D1F0E0916E011AD249F476D211F0E8
:100BB600E1E07FD26FD211F0E1E07BD20BC0A9D188
:100BC60049F4ADE072D211F0E0E073D263D211F0D5
:100BD600E0E06FD287DCE3CFE0916E01A4E0B0E005
:100BE600A4D31CDE0895C3D167D211F0ABE0ABDC11
:100BF60051D211F0ACE0A7DC0895B9D1ED2DF0E0AB
:100C060084D169F4AFE05BD209F0B4DE55D211F0BD
:100C1600E5E0DE2E3FD211F0E7E0DE2E50C0E530F3
:100C2600A0E0FA0769F4A2E04AD209F0D6DE44D27F
:100C360011F0E6E0DE2E2ED211F0E4E0DE2E3FC00B
:100C4600E630A0E0FA0769F4A9E039D209F03BDF03
:100C560033D211F0E8E0DE2E1DD211F0E5E0DE2EF3
:100C66002EC05FD169F4A8E02AD209F066DE24D24C
:100C760011F0EAE0DE2E0ED211F0E6E0DE2E1FC005
:100C8600EA30A0E0FA0769F4A1E119D209F086DF9B
:100C960013D211F0E7E0DE2EFDD111F0E8E0DE2EF2
:100CA6000EC03BD161F4A7E00AD209F0B7DD04D249
:100CB60011F0E4E0DE2EEED111F0EAE0DE2E08952A
:100CC60051D028D047D0789426D2E0E0EA93EA9330
:100CD600A0E05CD0A2E0B0E01CD3AE2FBCDCA2E06A
:100CE600B0E017D354D1FEDBEA2D79D111F40DDD36
:100CF6000FC007D111F481DF0BC017D111F474DDD9
:100D060007C007D111F46FDF03C0F7D009F445DD42
:100D1600EACFFFCFE0E0E2BDE3E0E5BDE0E0E4BD21
:100D2600EFEFE3BDE4ECE9BF0895E0E0EFBDE3E0FB
:100D3600EEBDEEE9EDBDE8E504C0E0E0EFBDEEBDD9
:100D4600EDBDECBDE0E0E7BDE6BDEBBDEABDE9BD4E
:100D5600E8BD0895EBB7E06CEBBFEAE0E5BFE0EC79
:100D6600EABF0895EFE7E7BBE0E0E8BBEFE0E4BBEE
:100D7600E0E0E5BBE2E0E1BBEDE0E2BB0895A2D135
:100D8600A98102D2A881A2D122960895AA93EA81C6
:100D9600E370EA83E981E03019F0EA81E061EA83F1
:100DA600E881E03019F0EA81E068EA8391D1A7E0B2
:100DB600EBD1AA8114C04DD08BD1A0E087D18BD1C5
:100DC6008FD192D08FD192D1AC81BD81EC93B7D126
:100DD6002696089577D1A0E08FD193D197D1D4D11B
:100DE600AED12396089535D073D1A3E06FD173D1D8
:100DF600AE81BF8177D1AC81BD8174D177D174D0FA
:100E0600EC939DD1289608955DD1A3E0BDD1AB8129
:100E16007DD177D171D15AD124960895AA93E881CC
:100E2600E295EF70AE2FAA0FAA0FEA0FEE0FA99167
:100E3600AF70EA0F0895AA93A991EE27AA5012F06F
:100E4600E05FFCCFA65FEA0F0895AA93E881F0E081
:100E56000895BA93AA930895EE8DFF8DE053F84F47
:100E66000895C2D10895EC87FD876E877F87089520
:100E7600EC85FD856E857F850895AC8DBD8D0895C5
:100E8600AC85BD858E859F85ECDFA0D1ECCFA8898A
:100E9600B9898A899B89EDE6F1E060E070E0089502
:100EA600A88DB98D0895ED93FC930895EA87FB8785
:100EB6000895EE83FF830895AA85BB8590970895CC
:100EC600EE81FF813196F5DFEA85FB857F97EECFD0
:100ED600AA85BB855F970895EE81FF813196E9DF8C
:100EE600EA85FB857E97E2CFA881B9810895E881DE
:100EF600F0E0E130A0E0FA070895E230A0E0FA075A
:100F06000895E330A0E0FA070895E430A0E0FA0778
:100F16000895E130A0E0FA070895E730A0E0FA0767
:100F26000895E830A0E0FA070895E930A0E0FA074E
:100F36000895E881F0E00895E05AFE4F0895A981EA
:100F4600B0E0EAE0F0E097D1AE2FCCC9A981BB278B
:100F5600EAE0F0E0BAD1AE2FC5C9E8BBA52D8CC931
:100F6600E4E6F0E0FA93EA93A0E0B0E074C9AEE0FC
:100F7600A3C8A0917A01B0917B0108953AD10E2EB3
:100F86000895A0916D010895E0916D010895E09393
:100F96006D010895E2E0EA930895F6DFEA93A2E090
:100FA60035CAE1E0EA930895E2E6EA93A1E02EDA93
:100FB600F8CFE2E7EA930895A2E028CAFA93EA9303
:100FC60008950A921A92FA926A937A938A939A9356
:100FD600AA93BA93EA93FA93EFB7EA930895F0E0E7
:100FE60030970895E0916601EF5FE0936601E09126
:100FF6006501F0E08ECFE1E0E0936901E0936A01DC
:101006000895E1E0E0936B01E0936C010895A3E09D
:10101600B0E07FD10895EDD0E0210895A3E0B0E0DF
:10102600E0E083D108954A92A1E0F0D9B3CFE091F0
:101036006F010895E09170010895E091710108959E
:10104600EA93A1E0E3D9A6CFEA93B6CFEA93A1E06B
:10105600DDD9A7CFEFE6EA93A3E0D8D9A2CFEA93EA
:10106600A4E0D4C9E9E6EA93A3E0D0D99ACFEA93FB
:10107600A3E0CCD996CFEEE2E9CF26DAA2E02FCBD9
:10108600AC2DE0E07BCFAA2DE3E0C5CF2BDA9CDACE
:10109600E03008959DDAE0300895AEE0C6DB94DADC
:1010A600E0300895A3E0B0E00895BFDB8DDAE030CC
:1010B6000895E0936E01089587DAE0300895B5DB70
:1010C600CC200895AA932CD0A0ED5EC05DD037C089
:1010D60027D0A0ED59C024D0A1ED56D0A1E039C04B
:1010E600AE2F9CCEEC93A1E034D0FACFAA81BB817F
:1010F600EC93A0E02ED0F4CF47D0A8819CDEAE2F93
:10110600089542D0A98197DEAE2F08953DD0AA81D9
:1011160092DEAE2F0895AD98AC98A59AA49815C006
:10112600A498A598EE2700009C9B08959D9B089582
:1011360004D0A49A02D0A59AE1E06DE007C0A49A73
:10114600A59A03D0A598F9DFA4986BE16A95F1F703
:10115600089578E0A598F1DF9D9BFECFEEDF889499
:101166009C990894A59AF1DFEE1F7A9599F77A2F44
:10117600772311F4A49801C0A49ADFDFA598E5DFD0
:10118600A59ADBDFA498D9CF78E0AA0F10F4A4982B
:1011960001C0A49ADADFA598D0DF9D9BFECFCDDFF4
:1011A600A59A7A9591F7A498C8DFA598CEDFE1E0D5
:1011B6009C99EE27A59AC1CF109639F080ED97E05D
:1011C6000197F1F7A8951197C9F70895EA0FFB1F44
:1011D600681F791F0895AE1BBF0B860B970B0895EA
:1011E600F195E195F04008956F2F660F660B762F07
:1011F6000895EA17E1E009F0EE270895AE17E1E059
:1012060008F0EE270895EA17E1E008F0EE270895C2
:101216007A9F702D6B9F700DF89F700DE99F700D72
:101226006A9F602D710DFB9F600D711DE89F600D1B
:10123600711D8827FA9FF02D610D781FEB9FF00D29
:10124600611D781FEA9FE02DF10D681F781F089534
:101256000024112490E1AA0FBB1F001C111C0E1ABA
:101266001F0A18F40E0E1F1E01C0A1609A9599F769
:10127600FD01D00108953BD0EBDF0EF4B1DF0895F8
:101286003F934F935F93002411244427552730E260
:10129600AA0FBB1F881F991F001C111C441F551F36
:1012A6000E1A1F0A460B570B28F40E0E1F1E461F5A
:1012B600571F01C0A1603A9559F7FD01BC01D00145
:1012C600CA015F914F913F910895E894B7FF04C01A
:1012D600A095B09511966894F7FD82DFB9DFFD0100
:1012E6000EF47EDF0895CCDFFD01BC010895E8947D
:1012F600F7FF02C075DF6894B7FF06C0A095B095EA
:10130600119600F8039400FA0895ED91FC91119757
:101316000895E199FECFFF93FFB7F894AEBBBFBB2C
:10132600E09AEDB3FFBFFF910895E19B02C0A89537
:10133600FCCF9FB7F894AEBBBFBBE09A8DB3E8175E
:1013460019F0EDBBE29AE19A9FBF089500240A16B0
:101356000B0608955A934A933A932A931A930A933B
:1013660008955D814C813B812A8119810881089508
:00000001FF
