:0200000032C00C
:10000200E1C1EBC105C201C2FACFF9CFF8CFF5C108
:10001200F6CFF5CFF4CFF3CFF2CFF1CFF0CFEFCFD2
:10002200EECFEDCF1027E80364000A0001000010B4
:100032000001100001000163003200000000000115
:10004200020001010101010063000A0004003800FE
:1000520001006501420005006B01440001007001CE
:100062004A000000F894EE27ECBBF1E0FBBFEBBFC7
:10007200E5BF8DE0A2E0BB27ED938A95E9F780E02A
:1000820094E0A0E6ED930197E9F7ECE4F0E08591C6
:100092009591009761F0A591B59105901590BF01DA
:1000A200F00105900D920197E1F7FB01F0CFEFE52A
:1000B200EDBFE4E0EEBFC0E6D1E0A2C3BA93AA93DB
:1000C200A881B98186D59198CFC1AA93E5B3E07F83
:1000D200E5BB4FD411F4A1E00BC051D411F4A2E05E
:1000E20007C051D411F4A3E003C051D411F4A4E029
:1000F20001D0F9C1AA933DD431F4E0916C01E03012
:1001020009F0A89A17C03BD431F4E0916D01E030B8
:1001120009F0A99A0FC037D431F4E0916E01E030B2
:1001220009F0AA9A07C033D429F4E0916F01E030B4
:1001320009F0AB9AD8C1AA931CD411F4E6E0D3C15A
:100142001ED411F4EBE5CFC11ED411F4EFE4CBC100
:100152001ED411F4E6E6C7C1E530A0E0FA0711F4B7
:10016200EDE6C1C1E630A0E0FA0711F4EDE7BBC14C
:10017200E730A0E0FA0711F4E7E0B5C1E830A0E00B
:10018200FA0711F4EFE7AFC1E930A0E0FA0711F482
:10019200EFE6A9C1309711F4EFE3A5C1E536A0E07F
:1001A200FA0711F4E9E79FC1E237A0E0FA0711F478
:1001B200E0E799C1E236A0E0FA0711F4ECE793C157
:1001C200E037A0E0FA0711F4E3E78DC1EF36A0E0D3
:1001D200FA0711F4ECE587C1E636A0E0FA0711F45C
:1001E200E1E781C1EC36A0E0FA0711F4E8E37BC154
:1001F200E336A0E0FA0711F4E8E575C1E437A0E0C0
:10020200FA0711F4E8E76FC1E837A0E0FA0711F442
:10021200E6E769C1E136A0E0FA0711F4E7E763C156
:10022200E936A0E0FA0711F4E0E35DC1EE36A0E0A2
:10023200FA0711F4E4E757C1E637A0E0FA0711F430
:10024200EEE351C1EE32A0E0FA0711F4E0E04BC157
:100252004AC1AA938ED389F49ED331979FD3FF9339
:10026200EF939FD3AF91BF91EC9395D397D3FF9325
:10027200EF939ED3AF91BF9112C081D389F48BD3F8
:100282008DD3FF93EF938DD3AF91BF91EC9383D333
:10029200EF59FE4FFF93EF938BD3AF91BF91EC9346
:1002A200E3C0AA9378D3319779D3FF93EF93A981CF
:1002B20042DFAF91BF91EC93D7C0E42D80D329F4F4
:1002C200E091600181D3E2E014C059D329F4E091B6
:1002D20061017AD3E3E00DC056D329F4E0916201C3
:1002E20073D3E4E006C053D329F4E09163016CD3E5
:1002F200E1E04E2E089580990EC0809BFECFA4E6C9
:10030200B0E0DCDEE1E063D3E0916401E03019F4B7
:10031200E1E060D362D30895E2E0EA1591F45FD39D
:10032200A23008F062D367D308F05FD364D308F039
:100332005CD361D308F059D35ED308F056D35FD3B0
:1003420061D3E2E0EB1591F44AD3A33608F45FD30C
:1003520064D308F45CD361D308F459D35ED308F4B0
:1003620056D35BD308F453D34AD34CD30895A5E0B4
:1003720003D056D35AD341C1AA93DD24C88075D283
:10038200E1E0E0936701AFC0E0916701E03059F02E
:10039200E0E0EC1510F4CA9406C0E1E0DE2E6DD266
:1003A200E0E0E09367010895E2E0EB1521F007C079
:1003B200E2E0EA1521F4AA24BB24E1E00895E0E09A
:1003C200089508953AD3EB2D3ED311F4E1E003C032
:1003D2003DD311F4E2E0AE2E0AC02FD3EA2D33D37F
:1003E20011F4E1E003C032D311F4E2E0BE2EE99150
:1003F200EFBFF991E991A99118952CD3C5DF36D0B9
:10040200EEE9EDBDE8E5ECBD06C024D356DF03C03E
:1004120021D3A0E05ADEE991EFBFF991E991B991B8
:10042200A9919991899179916991F990199009907D
:100432001895AA931A9310E0E0E0E3BDA981EFEFCB
:10044200EA9FF001DF01E4E6F0E0E9D3E98310E09E
:10045200E9811E1740F4E3B5EF3F18F4E3B5EF5F0F
:10046200E3BD1F5FF5CF188122960895E0916A01DE
:10047200E03019F1A0916901A13080F4F9D231F490
:10048200E0E0E0936C01E0936D0107C078D229F4BB
:10049200E0E0E0936E01E0936F010FC0A09169016B
:1004A200A43040F4E5D211F4EBD203C068D209F4CF
:1004B200EDD203C0E0E0E09369010895AA93E091D0
:1004C2006A01E03031F0D9D1E0E0E0936A01D8D29C
:1004D200DDD2A881A13038F0E881E0936801C5D16E
:1004E200E1E0E0936A0121960895E6E0F0E0FA93F4
:1004F200EA93E9E0F0E0FA93EA93A8E0B0E0F4D1FD
:10050200CBD21E2EA1E0CCD2E12DA2E070D3E02905
:1005120099F0A1E0B0E0A4D3AE2FE62DC1D2A0E0C5
:10052200B0E09ED3AE2FE92DBED231F0E6E052D23A
:10053200B3D2E13009F4BAD2DD2009F0BCD2089579
:10054200A1E0B0E08DD3BDD284DEA0E0B0E088D3DC
:10055200BBD27FDEE0E03ED2A4E60EDFA8EEB3E03F
:10056200ADDD0895E0E036D2B2D237D2A0E0A6DF08
:100572000895E3E6A6D295DEECE6A6D292DEEFE699
:10058200AAD2E3E638C0E5E69CD28BDEE8E79CD24D
:10059200A5D2E4E730C0E1E694D283DEECE694D261
:1005A20080DEE1E624C041D299D2E9E024C0EFE640
:1005B2008BD277DEEEE68FD2E5E61DC0EEE281D287
:1005C20070DEEFE681D26DDEE6E685D2E6E613C0A6
:1005D200EEE277D266DEE2E677D280D2E0E70BC0C7
:1005E200E5E66FD25EDEE6E76FD25BDEE5E6EA9332
:1005F200A3E057DEE2E7EA93A4E053DE0895EDD1EB
:10060200A2E05CDF6ED271D261F073D219F005D232
:1006120008F4FDD172D219F0EED108F0E6D100D281
:10062200F1CFEDD106DFE0917001A2E0B0E024D37A
:1006320099DF089532D3162D092DCFD13CD2A1E0F6
:100642003DDF4FD252D271F054D219F0183108F472
:100652001F5F53D219F0113008F011501A93A1E024
:10066200F8DDEFCFBAD1A2E029DF3BD23ED271F062
:1006720040D219F00B3308F40F5F3FD219F001306A
:1006820008F001500A93A2E0E4DDEFCF1A930A9337
:10069200A0E045D163C001D310E000E0162D092D82
:1006A2009CD104D21ED221D241F1F6D1CCD161F437
:1006B20085DF26D219F027D2E1E0DED21ED219F070
:1006C20022D2E2E0D9D217C0C1D151F470DF18D2E0
:1006D20019F019D2E2E0D0D210D209F0E7D10BC062
:1006E2004ED149F47DDF0CD209F0E0D106D219F0E7
:1006F2000AD2E1E0C1D2FFDDD5CF6FD1DCD1A1E0DA
:10070200DDDEEFD1F2D171F0F4D119F0183108F435
:100712001F5FF3D119F0113008F011501A93A1E0C4
:1007220098DDEFCF5AD1A2E0C9DEDBD1DED171F084
:10073200E0D119F00B3308F40F5FDFD119F001306B
:1007420008F001500A93A2E084DDEFCFE12FA1E08F
:10075200B0E092D2E02FA0E0B0E08ED203DF0991A8
:10076200199108950895E0916501F0E008D161F4CE
:1007720000DFCCD109F05EDFC3D109F0CBD1BDD10E
:1007820011F0E4E0CBD13BC0FED061F404DFBED176
:1007920009F081DFB5D111F0E5E0C0D1AED109F0A9
:1007A20096D12DC0E530A0E0FA0761F4FCDEAED1AF
:1007B20009F025DFA5D111F0E7E0B0D19ED109F013
:1007C200A9D11DC0E730A0E0FA0769F401DF9ED18C
:1007D20009F0C8DF95D111F0E4E0A0D18ED111F07B
:1007E200E5E09CD10CC0D3D051F4CDDE8FD109F01D
:1007F200B9DE86D109F06BD180D109F08BD1089591
:1008020051D028D047D0789493D1E0E0EA93EA938C
:10081200A0E055D0A2E0B0E023D2AE2F0ADEA4EFD2
:10082200B1E04CDCA2E0B0E01BD2E093700163DDEA
:10083200E091640108D119F46FDD57DE09C006D1D9
:1008420011F491DF05C0E630A0E0FA0709F478DE82
:10085200EECFFFCFE0E0E2BDE3E0E5BDE0E0E4BDE6
:10086200EFEFE3BDE4ECE9BF0895E0E0EFBDE3E0C4
:10087200EEBDEEE9EDBDE8E504C0E0E0EFBDEEBDA2
:10088200EDBDECBDE0E0E7BDE6BDEBBDEABDE9BD17
:10089200E8BD0895EBB7E06CEBBFEAE0E5BFE0EC42
:1008A200EABF0895EFE7E7BBE0E0E8BBEFE0E4BBB7
:1008B200E0E0E5BBE2E0E1BBEDE0E2BB0895AA9334
:1008C200EA81E370EA83E981E03019F0EA81E061CC
:1008D200EA83E881E03019F0EA81E068EA8321D115
:1008E200A7E05FD1AA812AC0BA93AA931AD1A0E045
:1008F20058D132D122D1A1ED54D116D1A881B981DA
:10090200EC9312D1AA81BB81EC93A0E02FD1AE2F40
:1009120019D0AC81BD81EC931FD126960895AA937C
:1009220000D1A0E03ED1A8811AD0AE2F3AD1A98140
:1009320016D0AE2F36D1AA8112D0AE2F32D10CD121
:1009420023960895AA93E881E295EF70AE2FAA0F3D
:10095200AA0FEA0FEE0FA991AF70EA0F0895AA93BA
:10096200A991EE27AA5012F0E05FFCCFA65FEA0F32
:100972000895E881F0E0E130A0E0FA070895E2305E
:10098200A0E0FA070895E330A0E0FA070895E43002
:10099200A0E0FA070895E881F0E00895E05AFE4FDA
:1009A2000895A981B0E0EAE0F0E039D1AE2FC3CBDF
:1009B200A981BB27EAE0F0E037D1AE2FBCCBF0E053
:1009C200E130A0E0FA070895E8BBA42D7ECBE093C6
:1009D20066010895E09364010895E0E0F8CFA3E092
:1009E200B0E06CDBA09170010895E0917001E150DC
:1009F200E09370010895A0917001A2300895A09132
:100A02007001089516DDB3DCBB24AA240895E09199
:100A12007001EF5FE09370010895F1DFA33608954E
:100A2200E0917001EA93A2E014CCE2E6EA93A1E03D
:100A320038DCE2E7EA93A2E00895AA93EA93FA93F4
:100A4200EFB7EA930895F0E030970895E130A0E01F
:100A5200FA0708950A921A92FA926A937A938A93FB
:100A62009A93AA93BA93EA93FA93EFB7EA93089503
:100A7200E0916901EF5FE0936901E09168019FCF26
:100A8200E1E0E0936C01E0936D010895E1E0E09311
:100A92006E01E0936F010895A3E0B0E0E1D0089504
:100AA200A6D00E2E0895A3D0E0210895A3E0B0E0D1
:100AB200E0E0E2D008956A92A1E0CBDB9A92A2E054
:100AC200C8CBEA93A1E00895EA93A2E00895E2E098
:100AD200E09365010895EA93A3E0E3CBE2DBE9E664
:100AE200FACFA0916601E0E0DBCFA0916401E1E0E2
:100AF200DACF01DC59DCE03008955ADCE0300895A9
:100B020053DCE0300895A3E0B0E00895E09166017F
:100B1200E0300895E3E0E09365010895E093650114
:100B220008950BD0A0ED3DC0A1E020D0AE2F0ACF9A
:100B3200AD98AC98A59AA49815C0A498A598EE274C
:100B420000009C9B08959D9B089504D0A49A02D016
:100B5200A59AE1E06DE007C0A49AA59A03D0A598F2
:100B6200F9DFA4986BE16A95F1F7089578E0A5980A
:100B7200F1DF9D9BFECFEEDF88949C990894A59AA5
:100B8200F1DFEE1F7A9599F77A2F772311F4A49863
:100B920001C0A49ADFDFA598E5DFA59ADBDFA49860
:100BA200D9CF78E0AA0F10F4A49801C0A49ADADF92
:100BB200A598D0DF9D9BFECFCDDFA59A7A9591F7C0
:100BC200A498C8DFA598CEDFE1E09C99EE27A59A0C
:100BD200C1CF109639F0A89580ED97E00197F1F713
:100BE2001197C9F70895F195E195F0400895EA1734
:100BF200E1E009F0EE2708950024112490E1AA0F04
:100C0200BB1F001C111C0E1A1F0A18F40E0E1F1E09
:100C120001C0A1609A9599F7FD01D001089512D003
:100C2200EBDF0EF4E0DF0895E894B7FF04C0A0956F
:100C3200B09511966894F7FDD6DFDEDFFD010EF464
:100C4200D2DF0895E894F7FF02C0CDDF6894B7FFC2
:100C520006C0A095B095119600F8039400FA089585
:100C6200E199FECFFF93FFB7F894AEBBBFBBE09A0A
:100C7200EDB3FFBFFF910895E19B02C0A895FCCFA1
:100C82009FB7F894AEBBBFBBE09A8DB3E81719F0DB
:100C9200EDBBE29AE19A9FBF08951A930A930895D1
:00000001FF
